{
  "contractName": "register",
  "abi": [
    {
      "inputs": [
        {
          "internalType": "address",
          "name": "username",
          "type": "address"
        },
        {
          "internalType": "uint256",
          "name": "password",
          "type": "uint256"
        },
        {
          "internalType": "uint256",
          "name": "role",
          "type": "uint256"
        }
      ],
      "name": "registerUser",
      "outputs": [],
      "stateMutability": "nonpayable",
      "type": "function"
    },
    {
      "inputs": [
        {
          "internalType": "address",
          "name": "username",
          "type": "address"
        },
        {
          "internalType": "uint256",
          "name": "password",
          "type": "uint256"
        }
      ],
      "name": "loginUser",
      "outputs": [
        {
          "internalType": "bool",
          "name": "",
          "type": "bool"
        }
      ],
      "stateMutability": "view",
      "type": "function",
      "constant": true
    },
    {
      "inputs": [],
      "name": "viewUsers",
      "outputs": [
        {
          "internalType": "address[]",
          "name": "",
          "type": "address[]"
        },
        {
          "internalType": "uint256[]",
          "name": "",
          "type": "uint256[]"
        },
        {
          "internalType": "uint256[]",
          "name": "",
          "type": "uint256[]"
        },
        {
          "internalType": "uint256[]",
          "name": "",
          "type": "uint256[]"
        }
      ],
      "stateMutability": "view",
      "type": "function",
      "constant": true
    },
    {
      "inputs": [
        {
          "internalType": "address",
          "name": "user",
          "type": "address"
        },
        {
          "internalType": "uint256",
          "name": "bal",
          "type": "uint256"
        }
      ],
      "name": "updateBalance",
      "outputs": [],
      "stateMutability": "nonpayable",
      "type": "function"
    }
  ],
  "bytecode": "0x608060405234801561001057600080fd5b50610a0c806100206000396000f3fe608060405234801561001057600080fd5b506004361061004c5760003560e01c806314ebdb79146100515780633c12773614610072578063e0b1cccb1461008e578063eb72346b146100aa575b600080fd5b6100596100da565b60405161006994939291906107a9565b60405180910390f35b61008c60048036038101906100879190610867565b610274565b005b6100a860048036038101906100a391906108ba565b610408565b005b6100c460048036038101906100bf91906108ba565b6104c5565b6040516100d19190610915565b60405180910390f35b60608060608060006001600260038380548060200260200160405190810160405280929190818152602001828054801561016957602002820191906000526020600020905b8160009054906101000a900473ffffffffffffffffffffffffffffffffffffffff1673ffffffffffffffffffffffffffffffffffffffff168152602001906001019080831161011f575b50505050509350828054806020026020016040519081016040528092919081815260200182805480156101bb57602002820191906000526020600020905b8154815260200190600101908083116101a7575b505050505092508180548060200260200160405190810160405280929190818152602001828054801561020d57602002820191906000526020600020905b8154815260200190600101908083116101f9575b505050505091508080548060200260200160405190810160405280929190818152602001828054801561025f57602002820191906000526020600020905b81548152602001906001019080831161024b575b50505050509050935093509350935090919293565b600460008473ffffffffffffffffffffffffffffffffffffffff1673ffffffffffffffffffffffffffffffffffffffff16815260200190815260200160002060009054906101000a900460ff16156102cb57600080fd5b6000839080600181540180825580915050600190039060005260206000200160009091909190916101000a81548173ffffffffffffffffffffffffffffffffffffffff021916908373ffffffffffffffffffffffffffffffffffffffff160217905550600182908060018154018082558091505060019003906000526020600020016000909190919091505560028190806001815401808255809150506001900390600052602060002001600090919091909150556001600460008573ffffffffffffffffffffffffffffffffffffffff1673ffffffffffffffffffffffffffffffffffffffff16815260200190815260200160002060006101000a81548160ff02191690831515021790555060036127109080600181540180825580915050600190039060005260206000200160009091909190915055505050565b60005b6000805490508110156104c0578273ffffffffffffffffffffffffffffffffffffffff166000828154811061044357610442610930565b5b9060005260206000200160009054906101000a900473ffffffffffffffffffffffffffffffffffffffff1673ffffffffffffffffffffffffffffffffffffffff16036104ad57816003828154811061049e5761049d610930565b5b90600052602060002001819055505b80806104b89061098e565b91505061040b565b505050565b6000600460008473ffffffffffffffffffffffffffffffffffffffff1673ffffffffffffffffffffffffffffffffffffffff16815260200190815260200160002060009054906101000a900460ff1661051d57600080fd5b60005b6000805490508110156105e5578373ffffffffffffffffffffffffffffffffffffffff166000828154811061055857610557610930565b5b9060005260206000200160009054906101000a900473ffffffffffffffffffffffffffffffffffffffff1673ffffffffffffffffffffffffffffffffffffffff161480156105c3575082600182815481106105b6576105b5610930565b5b9060005260206000200154145b156105d25760019150506105eb565b80806105dd9061098e565b915050610520565b60009150505b92915050565b600081519050919050565b600082825260208201905092915050565b6000819050602082019050919050565b600073ffffffffffffffffffffffffffffffffffffffff82169050919050565b60006106488261061d565b9050919050565b6106588161063d565b82525050565b600061066a838361064f565b60208301905092915050565b6000602082019050919050565b600061068e826105f1565b61069881856105fc565b93506106a38361060d565b8060005b838110156106d45781516106bb888261065e565b97506106c683610676565b9250506001810190506106a7565b5085935050505092915050565b600081519050919050565b600082825260208201905092915050565b6000819050602082019050919050565b6000819050919050565b6107208161070d565b82525050565b60006107328383610717565b60208301905092915050565b6000602082019050919050565b6000610756826106e1565b61076081856106ec565b935061076b836106fd565b8060005b8381101561079c5781516107838882610726565b975061078e8361073e565b92505060018101905061076f565b5085935050505092915050565b600060808201905081810360008301526107c38187610683565b905081810360208301526107d7818661074b565b905081810360408301526107eb818561074b565b905081810360608301526107ff818461074b565b905095945050505050565b600080fd5b6108188161063d565b811461082357600080fd5b50565b6000813590506108358161080f565b92915050565b6108448161070d565b811461084f57600080fd5b50565b6000813590506108618161083b565b92915050565b6000806000606084860312156108805761087f61080a565b5b600061088e86828701610826565b935050602061089f86828701610852565b92505060406108b086828701610852565b9150509250925092565b600080604083850312156108d1576108d061080a565b5b60006108df85828601610826565b92505060206108f085828601610852565b9150509250929050565b60008115159050919050565b61090f816108fa565b82525050565b600060208201905061092a6000830184610906565b92915050565b7f4e487b7100000000000000000000000000000000000000000000000000000000600052603260045260246000fd5b7f4e487b7100000000000000000000000000000000000000000000000000000000600052601160045260246000fd5b60006109998261070d565b91507fffffffffffffffffffffffffffffffffffffffffffffffffffffffffffffffff82036109cb576109ca61095f565b5b60018201905091905056fea2646970667358221220c33bf0541c6fcdd4ca55dc329bf20cd59008b79ac5af0ebba0345e3e05abfd7b64736f6c634300080f0033",
  "immutableReferences": {},
  "source": "// SPDX-License-Identifier: MIT\npragma solidity >=0.4.22 <0.9.0;\n\ncontract register {\n  \n  address[] _usernames;\n  uint[] _passwords;\n  uint[] _roles;\n  uint[] _amounts;\n\n  mapping(address=>bool) _users;\n\n  function registerUser(address username,uint password,uint role) public {\n    require(!_users[username]);\n\n    _usernames.push(username);\n    _passwords.push(password);\n    _roles.push(role);\n    _users[username]=true;\n    _amounts.push(10000);\n  }\n\n  function loginUser(address username,uint password) public view returns(bool){\n    require(_users[username]);\n\n    uint i;\n    for(i=0;i<_usernames.length;i++){\n      if(_usernames[i]==username && _passwords[i]==password){\n        return true;\n      }\n    }\n    return false;\n  }\n\n  function viewUsers() public view returns(address[] memory, uint[] memory, uint[] memory,uint[] memory){\n    return(_usernames,_passwords,_roles,_amounts);\n  }\n\n  function updateBalance(address user, uint bal) public {\n    uint i;\n\n    for(i=0;i<_usernames.length;i++) {\n      if(_usernames[i]==user){\n        _amounts[i]=bal;\n      }\n    }\n\n  }\n}\n",
  "sourcePath": "/Users/ms/Desktop/Stock-Market-using-Blockchain/contracts/register.sol",
  "compiler": {
    "name": "solc",
    "version": "0.8.15+commit.e14f2714.Emscripten.clang"
  },
  "schemaVersion": "3.4.8",
  "updatedAt": "2023-03-23T20:02:51.473Z",
  "networkType": "ethereum",
  "devdoc": {
    "kind": "dev",
    "methods": {},
    "version": 1
  },
  "userdoc": {
    "kind": "user",
    "methods": {},
    "version": 1
  }
}