{
  "contractName": "trades",
  "abi": [
    {
      "inputs": [
        {
          "internalType": "address",
          "name": "username",
          "type": "address"
        },
        {
          "internalType": "uint256",
          "name": "shares",
          "type": "uint256"
        },
        {
          "internalType": "uint256",
          "name": "shareprices",
          "type": "uint256"
        }
      ],
      "name": "createShare",
      "outputs": [],
      "stateMutability": "nonpayable",
      "type": "function"
    },
    {
      "inputs": [
        {
          "internalType": "address",
          "name": "username",
          "type": "address"
        },
        {
          "internalType": "uint256",
          "name": "shareprice",
          "type": "uint256"
        }
      ],
      "name": "increaseSharePrice",
      "outputs": [],
      "stateMutability": "nonpayable",
      "type": "function"
    },
    {
      "inputs": [],
      "name": "viewShares",
      "outputs": [
        {
          "internalType": "address[]",
          "name": "",
          "type": "address[]"
        },
        {
          "internalType": "uint256[]",
          "name": "",
          "type": "uint256[]"
        },
        {
          "internalType": "uint256[]",
          "name": "",
          "type": "uint256[]"
        }
      ],
      "stateMutability": "view",
      "type": "function",
      "constant": true
    },
    {
      "inputs": [
        {
          "internalType": "address",
          "name": "username",
          "type": "address"
        },
        {
          "internalType": "address",
          "name": "company",
          "type": "address"
        },
        {
          "internalType": "uint256",
          "name": "noofshares",
          "type": "uint256"
        },
        {
          "internalType": "uint256",
          "name": "shareprice",
          "type": "uint256"
        }
      ],
      "name": "tradeShare",
      "outputs": [],
      "stateMutability": "nonpayable",
      "type": "function"
    },
    {
      "inputs": [
        {
          "internalType": "address",
          "name": "username",
          "type": "address"
        },
        {
          "internalType": "address",
          "name": "company",
          "type": "address"
        },
        {
          "internalType": "uint256",
          "name": "noofshares",
          "type": "uint256"
        },
        {
          "internalType": "uint256",
          "name": "shareprice",
          "type": "uint256"
        }
      ],
      "name": "sellShare",
      "outputs": [
        {
          "internalType": "bool",
          "name": "",
          "type": "bool"
        }
      ],
      "stateMutability": "nonpayable",
      "type": "function"
    },
    {
      "inputs": [],
      "name": "viewTradeShares",
      "outputs": [
        {
          "internalType": "address[]",
          "name": "",
          "type": "address[]"
        },
        {
          "internalType": "address[]",
          "name": "",
          "type": "address[]"
        },
        {
          "internalType": "uint256[]",
          "name": "",
          "type": "uint256[]"
        },
        {
          "internalType": "uint256[]",
          "name": "",
          "type": "uint256[]"
        }
      ],
      "stateMutability": "view",
      "type": "function",
      "constant": true
    }
  ],
  "bytecode": "0x608060405234801561001057600080fd5b50610e48806100206000396000f3fe608060405234801561001057600080fd5b50600436106100625760003560e01c8063109c75c9146100675780636d45e2a514610088578063714a4542146100a857806371dac329146100c4578063c6625266146100e0578063eef3b616146100fc575b600080fd5b61006f61012c565b60405161007f9493929190610adc565b60405180910390f35b6100906102fc565b60405161009f93929190610b3d565b60405180910390f35b6100c260048036038101906100bd9190610be6565b61043e565b005b6100de60048036038101906100d99190610c4d565b61055c565b005b6100fa60048036038101906100f59190610ca0565b610616565b005b61011660048036038101906101119190610be6565b6106e5565b6040516101239190610cfb565b60405180910390f35b6060806060806003600460056006838054806020026020016040519081016040528092919081815260200182805480156101bb57602002820191906000526020600020905b8160009054906101000a900473ffffffffffffffffffffffffffffffffffffffff1673ffffffffffffffffffffffffffffffffffffffff1681526020019060010190808311610171575b505050505093508280548060200260200160405190810160405280929190818152602001828054801561024357602002820191906000526020600020905b8160009054906101000a900473ffffffffffffffffffffffffffffffffffffffff1673ffffffffffffffffffffffffffffffffffffffff16815260200190600101908083116101f9575b505050505092508180548060200260200160405190810160405280929190818152602001828054801561029557602002820191906000526020600020905b815481526020019060010190808311610281575b50505050509150808054806020026020016040519081016040528092919081815260200182805480156102e757602002820191906000526020600020905b8154815260200190600101908083116102d3575b50505050509050935093509350935090919293565b60608060606000600160028280548060200260200160405190810160405280929190818152602001828054801561038857602002820191906000526020600020905b8160009054906101000a900473ffffffffffffffffffffffffffffffffffffffff1673ffffffffffffffffffffffffffffffffffffffff168152602001906001019080831161033e575b50505050509250818054806020026020016040519081016040528092919081815260200182805480156103da57602002820191906000526020600020905b8154815260200190600101908083116103c6575b505050505091508080548060200260200160405190810160405280929190818152602001828054801561042c57602002820191906000526020600020905b815481526020019060010190808311610418575b50505050509050925092509250909192565b6003849080600181540180825580915050600190039060005260206000200160009091909190916101000a81548173ffffffffffffffffffffffffffffffffffffffff021916908373ffffffffffffffffffffffffffffffffffffffff1602179055506004839080600181540180825580915050600190039060005260206000200160009091909190916101000a81548173ffffffffffffffffffffffffffffffffffffffff021916908373ffffffffffffffffffffffffffffffffffffffff1602179055506005829080600181540180825580915050600190039060005260206000200160009091909190915055600681908060018154018082558091505060019003906000526020600020016000909190919091505550505050565b6000839080600181540180825580915050600190039060005260206000200160009091909190916101000a81548173ffffffffffffffffffffffffffffffffffffffff021916908373ffffffffffffffffffffffffffffffffffffffff16021790555060018290806001815401808255809150506001900390600052602060002001600090919091909150556002819080600181540180825580915050600190039060005260206000200160009091909190915055505050565b60005b6000805490508110156106e0578273ffffffffffffffffffffffffffffffffffffffff166000828154811061065157610650610d16565b5b9060005260206000200160009054906101000a900473ffffffffffffffffffffffffffffffffffffffff1673ffffffffffffffffffffffffffffffffffffffff16036106cd5781600282815481106106ac576106ab610d16565b5b9060005260206000200160008282546106c59190610d74565b925050819055505b80806106d890610dca565b915050610619565b505050565b600080600090505b600380549050811015610916578573ffffffffffffffffffffffffffffffffffffffff166003828154811061072557610724610d16565b5b9060005260206000200160009054906101000a900473ffffffffffffffffffffffffffffffffffffffff1673ffffffffffffffffffffffffffffffffffffffff161480156107dc57508473ffffffffffffffffffffffffffffffffffffffff166004828154811061079957610798610d16565b5b9060005260206000200160009054906101000a900473ffffffffffffffffffffffffffffffffffffffff1673ffffffffffffffffffffffffffffffffffffffff16145b8015610805575083600582815481106107f8576107f7610d16565b5b9060005260206000200154145b801561082e5750826006828154811061082157610820610d16565b5b9060005260206000200154145b15610903576003818154811061084757610846610d16565b5b9060005260206000200160006101000a81549073ffffffffffffffffffffffffffffffffffffffff02191690556004818154811061088857610887610d16565b5b9060005260206000200160006101000a81549073ffffffffffffffffffffffffffffffffffffffff0219169055600581815481106108c9576108c8610d16565b5b9060005260206000200160009055600681815481106108eb576108ea610d16565b5b9060005260206000200160009055600191505061091c565b808061090e90610dca565b9150506106ed565b60009150505b949350505050565b600081519050919050565b600082825260208201905092915050565b6000819050602082019050919050565b600073ffffffffffffffffffffffffffffffffffffffff82169050919050565b600061097b82610950565b9050919050565b61098b81610970565b82525050565b600061099d8383610982565b60208301905092915050565b6000602082019050919050565b60006109c182610924565b6109cb818561092f565b93506109d683610940565b8060005b83811015610a075781516109ee8882610991565b97506109f9836109a9565b9250506001810190506109da565b5085935050505092915050565b600081519050919050565b600082825260208201905092915050565b6000819050602082019050919050565b6000819050919050565b610a5381610a40565b82525050565b6000610a658383610a4a565b60208301905092915050565b6000602082019050919050565b6000610a8982610a14565b610a938185610a1f565b9350610a9e83610a30565b8060005b83811015610acf578151610ab68882610a59565b9750610ac183610a71565b925050600181019050610aa2565b5085935050505092915050565b60006080820190508181036000830152610af681876109b6565b90508181036020830152610b0a81866109b6565b90508181036040830152610b1e8185610a7e565b90508181036060830152610b328184610a7e565b905095945050505050565b60006060820190508181036000830152610b5781866109b6565b90508181036020830152610b6b8185610a7e565b90508181036040830152610b7f8184610a7e565b9050949350505050565b600080fd5b610b9781610970565b8114610ba257600080fd5b50565b600081359050610bb481610b8e565b92915050565b610bc381610a40565b8114610bce57600080fd5b50565b600081359050610be081610bba565b92915050565b60008060008060808587031215610c0057610bff610b89565b5b6000610c0e87828801610ba5565b9450506020610c1f87828801610ba5565b9350506040610c3087828801610bd1565b9250506060610c4187828801610bd1565b91505092959194509250565b600080600060608486031215610c6657610c65610b89565b5b6000610c7486828701610ba5565b9350506020610c8586828701610bd1565b9250506040610c9686828701610bd1565b9150509250925092565b60008060408385031215610cb757610cb6610b89565b5b6000610cc585828601610ba5565b9250506020610cd685828601610bd1565b9150509250929050565b60008115159050919050565b610cf581610ce0565b82525050565b6000602082019050610d106000830184610cec565b92915050565b7f4e487b7100000000000000000000000000000000000000000000000000000000600052603260045260246000fd5b7f4e487b7100000000000000000000000000000000000000000000000000000000600052601160045260246000fd5b6000610d7f82610a40565b9150610d8a83610a40565b9250827fffffffffffffffffffffffffffffffffffffffffffffffffffffffffffffffff03821115610dbf57610dbe610d45565b5b828201905092915050565b6000610dd582610a40565b91507fffffffffffffffffffffffffffffffffffffffffffffffffffffffffffffffff8203610e0757610e06610d45565b5b60018201905091905056fea2646970667358221220d65174c774b19d645a2ef3392ba0f4e6996066f8c3ea0adb075eea79e6fcda2764736f6c634300080f0033",
  "immutableReferences": {},
  "source": "// SPDX-License-Identifier: MIT\npragma solidity >=0.4.22 <0.9.0;\n\ncontract trades {\n  address[] _usernames;\n  uint[] _shares;\n  uint[] _shareprices;\n\n  address[] _tusernames;\n  address[] _tcompanies;\n  uint[] _tshares;\n  uint[] _tshareprices;\n  uint[] _ttradeids;\n\n  function createShare(address username, uint shares, uint shareprices) public {\n    _usernames.push(username);\n    _shares.push(shares);\n    _shareprices.push(shareprices);\n  }\n\n  function increaseSharePrice(address username,uint shareprice) public {\n    uint i;\n    for(i=0;i<_usernames.length;i++) {\n      if(_usernames[i]==username)\n        _shareprices[i]+=shareprice;\n    }\n  }\n\n  function viewShares() public view returns(address[] memory, uint[] memory, uint[] memory) {\n    return(_usernames,_shares,_shareprices);\n  }\n\n  function tradeShare(address username,address company,uint noofshares,uint shareprice) public {\n    _tusernames.push(username);\n    _tcompanies.push(company);\n    _tshares.push(noofshares);\n    _tshareprices.push(shareprice);\n  }\n\n  function sellShare(address username,address company, uint noofshares,uint shareprice) public returns(bool){\n\n    uint i;\n    for(i=0;i<_tusernames.length;i++) {\n      if(_tusernames[i]==username && _tcompanies[i]==company && _tshares[i]==noofshares && _tshareprices[i]==shareprice) {\n        delete _tusernames[i];\n        delete _tcompanies[i];\n        delete _tshares[i];\n        delete _tshareprices[i];\n        return true;\n      }\n    }\n    return false;\n  }\n\n  function viewTradeShares() public view returns (address[] memory, address[] memory, uint[] memory,uint[] memory){\n    return(_tusernames,_tcompanies,_tshares,_tshareprices);\n  } \n}\n",
  "sourcePath": "/Users/ms/Desktop/Stock-Market-using-Blockchain/contracts/trades.sol",
  "compiler": {
    "name": "solc",
    "version": "0.8.15+commit.e14f2714.Emscripten.clang"
  },
  "schemaVersion": "3.4.8",
  "updatedAt": "2023-03-23T20:02:51.905Z",
  "networkType": "ethereum",
  "devdoc": {
    "kind": "dev",
    "methods": {},
    "version": 1
  },
  "userdoc": {
    "kind": "user",
    "methods": {},
    "version": 1
  }
}