{
  "contractName": "trades",
  "abi": [
    {
      "inputs": [
        {
          "internalType": "address",
          "name": "username",
          "type": "address"
        },
        {
          "internalType": "uint256",
          "name": "shares",
          "type": "uint256"
        },
        {
          "internalType": "uint256",
          "name": "shareprices",
          "type": "uint256"
        }
      ],
      "name": "createShare",
      "outputs": [],
      "stateMutability": "nonpayable",
      "type": "function"
    },
    {
      "inputs": [],
      "name": "viewShares",
      "outputs": [
        {
          "internalType": "address[]",
          "name": "",
          "type": "address[]"
        },
        {
          "internalType": "uint256[]",
          "name": "",
          "type": "uint256[]"
        },
        {
          "internalType": "uint256[]",
          "name": "",
          "type": "uint256[]"
        }
      ],
      "stateMutability": "view",
      "type": "function",
      "constant": true
    },
    {
      "inputs": [
        {
          "internalType": "address",
          "name": "username",
          "type": "address"
        },
        {
          "internalType": "address",
          "name": "company",
          "type": "address"
        },
        {
          "internalType": "uint256",
          "name": "noofshares",
          "type": "uint256"
        },
        {
          "internalType": "uint256",
          "name": "shareprice",
          "type": "uint256"
        }
      ],
      "name": "tradeShare",
      "outputs": [],
      "stateMutability": "nonpayable",
      "type": "function"
    },
    {
      "inputs": [],
      "name": "viewTradeShares",
      "outputs": [
        {
          "internalType": "address[]",
          "name": "",
          "type": "address[]"
        },
        {
          "internalType": "address[]",
          "name": "",
          "type": "address[]"
        },
        {
          "internalType": "uint256[]",
          "name": "",
          "type": "uint256[]"
        },
        {
          "internalType": "uint256[]",
          "name": "",
          "type": "uint256[]"
        }
      ],
      "stateMutability": "view",
      "type": "function",
      "constant": true
    }
  ],
  "bytecode": "0x608060405234801561001057600080fd5b50610966806100206000396000f3fe608060405234801561001057600080fd5b506004361061004c5760003560e01c8063109c75c9146100515780636d45e2a514610072578063714a45421461009257806371dac329146100ae575b600080fd5b6100596100ca565b604051610069949392919061076c565b60405180910390f35b61007a61029a565b604051610089939291906107cd565b60405180910390f35b6100ac60048036038101906100a79190610876565b6103dc565b005b6100c860048036038101906100c391906108dd565b6104fa565b005b60608060608060036004600560068380548060200260200160405190810160405280929190818152602001828054801561015957602002820191906000526020600020905b8160009054906101000a900473ffffffffffffffffffffffffffffffffffffffff1673ffffffffffffffffffffffffffffffffffffffff168152602001906001019080831161010f575b50505050509350828054806020026020016040519081016040528092919081815260200182805480156101e157602002820191906000526020600020905b8160009054906101000a900473ffffffffffffffffffffffffffffffffffffffff1673ffffffffffffffffffffffffffffffffffffffff1681526020019060010190808311610197575b505050505092508180548060200260200160405190810160405280929190818152602001828054801561023357602002820191906000526020600020905b81548152602001906001019080831161021f575b505050505091508080548060200260200160405190810160405280929190818152602001828054801561028557602002820191906000526020600020905b815481526020019060010190808311610271575b50505050509050935093509350935090919293565b60608060606000600160028280548060200260200160405190810160405280929190818152602001828054801561032657602002820191906000526020600020905b8160009054906101000a900473ffffffffffffffffffffffffffffffffffffffff1673ffffffffffffffffffffffffffffffffffffffff16815260200190600101908083116102dc575b505050505092508180548060200260200160405190810160405280929190818152602001828054801561037857602002820191906000526020600020905b815481526020019060010190808311610364575b50505050509150808054806020026020016040519081016040528092919081815260200182805480156103ca57602002820191906000526020600020905b8154815260200190600101908083116103b6575b50505050509050925092509250909192565b6003849080600181540180825580915050600190039060005260206000200160009091909190916101000a81548173ffffffffffffffffffffffffffffffffffffffff021916908373ffffffffffffffffffffffffffffffffffffffff1602179055506004839080600181540180825580915050600190039060005260206000200160009091909190916101000a81548173ffffffffffffffffffffffffffffffffffffffff021916908373ffffffffffffffffffffffffffffffffffffffff1602179055506005829080600181540180825580915050600190039060005260206000200160009091909190915055600681908060018154018082558091505060019003906000526020600020016000909190919091505550505050565b6000839080600181540180825580915050600190039060005260206000200160009091909190916101000a81548173ffffffffffffffffffffffffffffffffffffffff021916908373ffffffffffffffffffffffffffffffffffffffff16021790555060018290806001815401808255809150506001900390600052602060002001600090919091909150556002819080600181540180825580915050600190039060005260206000200160009091909190915055505050565b600081519050919050565b600082825260208201905092915050565b6000819050602082019050919050565b600073ffffffffffffffffffffffffffffffffffffffff82169050919050565b600061060b826105e0565b9050919050565b61061b81610600565b82525050565b600061062d8383610612565b60208301905092915050565b6000602082019050919050565b6000610651826105b4565b61065b81856105bf565b9350610666836105d0565b8060005b8381101561069757815161067e8882610621565b975061068983610639565b92505060018101905061066a565b5085935050505092915050565b600081519050919050565b600082825260208201905092915050565b6000819050602082019050919050565b6000819050919050565b6106e3816106d0565b82525050565b60006106f583836106da565b60208301905092915050565b6000602082019050919050565b6000610719826106a4565b61072381856106af565b935061072e836106c0565b8060005b8381101561075f57815161074688826106e9565b975061075183610701565b925050600181019050610732565b5085935050505092915050565b600060808201905081810360008301526107868187610646565b9050818103602083015261079a8186610646565b905081810360408301526107ae818561070e565b905081810360608301526107c2818461070e565b905095945050505050565b600060608201905081810360008301526107e78186610646565b905081810360208301526107fb818561070e565b9050818103604083015261080f818461070e565b9050949350505050565b600080fd5b61082781610600565b811461083257600080fd5b50565b6000813590506108448161081e565b92915050565b610853816106d0565b811461085e57600080fd5b50565b6000813590506108708161084a565b92915050565b600080600080608085870312156108905761088f610819565b5b600061089e87828801610835565b94505060206108af87828801610835565b93505060406108c087828801610861565b92505060606108d187828801610861565b91505092959194509250565b6000806000606084860312156108f6576108f5610819565b5b600061090486828701610835565b935050602061091586828701610861565b925050604061092686828701610861565b915050925092509256fea264697066735822122011970814178760585d39a484257949a047454c605118d477afe99202fb5507e864736f6c634300080f0033",
  "immutableReferences": {},
  "source": "// SPDX-License-Identifier: MIT\npragma solidity >=0.4.22 <0.9.0;\n\ncontract trades {\n  address[] _usernames;\n  uint[] _shares;\n  uint[] _shareprices;\n\n  address[] _tusernames;\n  address[] _tcompanies;\n  uint[] _tshares;\n  uint[] _tshareprices;\n\n  function createShare(address username, uint shares, uint shareprices) public {\n    _usernames.push(username);\n    _shares.push(shares);\n    _shareprices.push(shareprices);\n  }\n\n  function viewShares() public view returns(address[] memory, uint[] memory, uint[] memory) {\n    return(_usernames,_shares,_shareprices);\n  }\n\n  function tradeShare(address username,address company,uint noofshares,uint shareprice) public {\n    _tusernames.push(username);\n    _tcompanies.push(company);\n    _tshares.push(noofshares);\n    _tshareprices.push(shareprice);\n  }\n\n  function viewTradeShares() public view returns (address[] memory, address[] memory, uint[] memory,uint[] memory){\n    return(_tusernames,_tcompanies,_tshares,_tshareprices);\n  } \n}\n",
  "sourcePath": "/Users/ms/Desktop/Stock-Market-using-Blockchain/contracts/trades.sol",
  "compiler": {
    "name": "solc",
    "version": "0.8.15+commit.e14f2714.Emscripten.clang"
  },
  "schemaVersion": "3.4.8",
  "updatedAt": "2023-03-18T18:22:29.428Z",
  "networkType": "ethereum",
  "devdoc": {
    "kind": "dev",
    "methods": {},
    "version": 1
  },
  "userdoc": {
    "kind": "user",
    "methods": {},
    "version": 1
  }
}